:020000040000FA
:1000000038020020F100000017010000D5000000B8
:1000100000000000000000000000000000000000E0
:100020000000000000000000000000001B010000B4
:1000300000000000000000001D0100001F01000082
:100040002101000021010000210100002101000028
:100050002101000021010000210100002101000018
:1000600021010000AD0C0000210100002101000071
:100070009D0D000021010000210100002101000070
:1000800021010000210100002101000021010000E8
:1000900021010000210100002101000021010000D8
:1000A00021010000210100002101000021010000C8
:1000B00021010000210100002101000021010000B8
:1000C0000348854600F09AF8004800479D16000056
:1000D0003802002004207146084202D0EFF3098064
:1000E00001E0EFF308807146004A104795050000D3
:1000F0000C480D4901600D4901600D4901600D4A30
:100100000D4911600D4A0E491160002101600D4832
:1001100080470D480047FEE7FEE7FEE7FEE7FEE703
:10012000FEE700000001004059000000160000003A
:100130008800000024000040A55A00008002004012
:1001400001000000FD0A0000C100000030B50B46B0
:10015000014600202022012409E00D46D5409D42A1
:1001600005D31D469540491B254695404019154627
:10017000521E002DF1DC30BD03460B439B0703D01C
:1001800009E008C9121F08C0042AFAD203E00B785C
:100190000370401C491C521EF9D27047F0B51FB4C1
:1001A0000646002082B005464024019100901BE0E5
:1001B000019922460F46304600F042F8049A059B0A
:1001C000801A994110D310461946224600F028F8AB
:1001D000361A8F410197224601200021009F00F02E
:1001E0001FF838184D4100902046641E0028DFDCBF
:1001F000019B00982946324607B0F0BD064C012508
:10020000064E05E0E36807CC2B430C3C98471034BE
:10021000B442F7D3FFF758FF281B0000481B00002B
:1002200010B5202A04DB0146203A9140002010BD81
:10023000914020239C1A0346E3401943904010BD8F
:1002400010B5202A04DB0846203AD040002110BD1A
:100250000B46D340D0402024A21A914008431946AF
:1002600010BD00000EB509490EC900910192810F21
:100270008A00029369468A58054951184A68C3069C
:10028000DB0E0120984002434A600EBD881A000030
:100290000002004002490A6802430A6070470000F9
:1002A0000002004010B500F0DFFB0148006810BDFF
:1002B0000000002002480068C00700D001487047D5
:1002C000000200400048E80104480068800702D5A9
:1002D0000120C0037047002070470000000200406A
:1002E00010B500F0C1FB0448406B41070348490FBB
:1002F0000068C84010BD000000020040000000205F
:1003000010B500F0B1FB0448406B4006410F0348B4
:100310000068C84010BD000000020040000000203E
:1003200008B511A000681149009009680020052255
:100330001204114216D1080301D50D4800E00D4802
:100340008A030FD40A04920F6B469B5CCA0589048A
:10035000D20DC90E891C8008921C59435043FFF7E7
:10036000F5FE800008BD00000102020440020040CA
:10037000001BB7000048E801F3B5124881B00569D9
:100380000F4610200F4C0540403C206804263043A7
:100390002060102000F050F82069072108432061F8
:1003A000206A0009000138432062206988430199CE
:1003B0000843206100F058FB002D02D12068B043B3
:1003C0002060FEBD40020040F0B5194B88B0F0CB74
:1003D000009401ACE0C478CB04AF78C7840A23064C
:1003E0001B0E0ED003039B0F9B0004ADEB58114D69
:1003F0005B19E5B28405E40EA5401C68AC431443C8
:100400001C60420E520710D08200920F92006B4681
:100410009A58084B103BD21803015B0FC001C00E65
:100420008340106898430843106008B0F0BD000096
:10043000681A00002002004010B504460749084B26
:1004400005E00A46491E002A01DC002010BD1A6999
:1004500020469043F5D1012010BD000080F520001A
:100460004002004007480021017041708170C17056
:10047000017141718171C171017241728172C172E8
:10048000017370472800002010B501229102024834
:1004900000F03CF810BD00000040004010B5012104
:1004A0000022C902014800F031F810BD00400040B0
:1004B000034900200969090500D5012070470000A3
:1004C0000040004010B50122D102024800F01EF8A1
:1004D00010BD00000040004010B501208007C16B36
:1004E0000F2212069143C163C16B09010909C1635F
:1004F000054C01140122204600F008F80122D10326
:10050000204600F003F810BD40400040F0B5002345
:1005100001273C469C400C4208D005685C0003263D
:10052000A640B5431646A640354305605B1C102B1C
:10053000EFD3F0BD10B5FFF7A7FFFFF7C3FF0248E9
:1005400001218162C16210BD0048004010B5FF2149
:100550002D31024800F008FB10BD000000000540EE
:1005600010B53C21014800F0FFFA10BD0000054025
:1005700010B5FF21F531024800F0F6FA10BD000079
:100580000000054010B56421014800F0EDFA10BDEF
:1005900000000540044603A000F014FE204601F0D0
:1005A000F7F9FEE7496E2048617264204661756C78
:1005B000742048616E646C65720A000070B5064C68
:1005C0000125A562FFF7DEFFE562FFF7DBFF0020F4
:1005D000E062FFF7D7FF70BD0048004070B5094CDE
:1005E0000025A562FFF7CEFFFFF76CFFE562FFF77E
:1005F000C9FF0125A562FFF7C5FFE562FFF7C2FF4E
:1006000070BD000000480040FEB5002552A00295D4
:1006100003C8534E019100903078892801D08B286F
:1006200001D101200290FFF71DFF4D4C2021A41F96
:10063000207808432070FFF7C1FF4A4E012716E0DB
:1006400000240022B26246486946405D095D0842C6
:1006500001D0F76200E0F262FFF794FFB762FFF7A4
:1006600091FF641CE4B2082CEBD36D1CEDB23C4846
:10067000801F40888542E3D3394DDF21AD1F2878A4
:100680000840102108432870FFF708FF002418E0F5
:1006900000250020B062FFF775FFB762FFF772FF19
:1006A000314A105D40001055FFF702FF002802D0CC
:1006B000105D384310556D1CEDB2082DE9D3641C54
:1006C000E4B22748801F80888442E1D3FFF786FF89
:1006D000234DEF21AD1F287808402870AA88012AF1
:1006E00006D0022A18D0002108461F4B941E2AE08B
:1006F0001D480078A52804D0FA2805D05F2808D026
:1007000005E00020687015E06878401C68700020E3
:10071000FEBD002068700FE0134908784978414019
:10072000C9430906090EEFD169700299002901D069
:100730005F2801D00120FEBDFF20FEBD1E5C7118A8
:10074000401CC9B2C0B2A042F8DD98182038C07F62
:100750004840FF28D8D1D4E7804020100804020187
:100760001E0000200048004028000020BFF34F8FEB
:1007700004490348C860BFF34F8F00BFFDE7000086
:100780000400FA0500ED00E010B50848842101706E
:100790007B2141700221801F418001218180FFF770
:1007A00033FF0446FFF7DCFE204610BD1E0000208C
:1007B00010B50848832101707C2141700221801FFF
:1007C000418001218180FFF71FFF0446FFF7C8FE2B
:1007D000204610BD1E00002070B505460A49F120D4
:1007E00008700E20487008480221801F41808180D7
:1007F000FFF70AFF0446012802D104480078287058
:10080000FFF7AEFE204670BD1E000020280000202D
:1008100010B50D4A7F211170010A517090707F311F
:100820000818C043D0700421901F418001218180AD
:10083000FFF7EAFE0446FFF79BFEFFF799FEFFF77E
:1008400097FE204610BD00001E00002010B50D4A86
:100850007E211170010A517090707E310818C043DA
:10086000D0700421901F418001218180FFF7CCFED0
:100870000446FFF77DFEFFF77BFEFFF779FE20467B
:1008800010BD00001E00002070B50B4882210170D1
:100890007D2141700221801F41800121002481803F
:1008A000FFF7B2FE0546FFF763FE641CE4B2282C96
:1008B000F9D9284670BD00001E00002070B505461D
:1008C0000A4911200870EE20487008480221801F54
:1008D00041808180FFF798FE0446012802D1044838
:1008E00000782870FFF73CFE204670BD1E000020F7
:1008F0002800002010B50A49F0220A704870F03034
:10090000C043887006480321801F418001218180F7
:10091000FFF77AFE0446FFF719FE204610BD0000DF
:100920001E00002038B50020694608700F4880215D
:1009300001707F2141700221801F4180012181804F
:10094000FFF762FE0446FFF701FE03E0FFF710FE2B
:10095000FFF70EFE6846FFF7B1FF0128F6D16846A3
:1009600000784028F2D1204638BD00001E0000204B
:1009700010B5084C0020A062FFF7E8FDFFF7E6FD88
:100980000120A062FFF7F4FDFFF7F2FDFFF7F0FD95
:1009900010BD00000048004070B559201F4C1622C1
:1009A00088212060226021602368002BF9D0042078
:1009B000FFF770FC1020FFF73FFD00210720FFF735
:1009C000DBFC174D2846FFF74DFC032100220906EA
:1009D0002846FFF7F9FC134D2846FFF743FC072193
:1009E000002209022846FFF7EFFC0F4D2846FFF7CB
:1009F00039FC0721002209032846FFF7E5FC012006
:100A00008007C16BFF2212049143332252048918DC
:100A1000C16300F029F80020206070BD0001004093
:100A2000103D805F0200805E0300C05E0121020E67
:100A3000890751188B680122824013438B608868B4
:100A4000904388607047000006498A691202FCD40E
:100A50000A2804D10D220A608A691202FCD40860B7
:100A60007047000000000740F8B51D4D28691C497B
:100A700044071CA000680090640F00204031096802
:100A800005221204114216D1080301D5164800E0D0
:100A900016488A030FD40A04920F6B469B5CCA0562
:100AA0008904D20DC90E891C8008921C59435043F9
:100AB000FFF74CFB80000E4E022CB06002D00D49B7
:100AC000A0000858296A0907090F491CFFF73EFBD7
:100AD000094930604A108018FFF738FB7060F8BD94
:100AE0000002004001020204001BB7000048E801B8
:100AF00000000020481A000040420F0010B55921A4
:100B00000A48162388220160036002600468002CF2
:100B1000F9D007490B680722120593430B600B6855
:100B200013430B600021016010BD00000001004074
:100B30000002004010B50A4C7D220121D200C906F6
:100B4000204600F093F8206821060843206008152D
:100B500004490860206889050843206010BD000032
:100B60002000054000E100E0F8B50C46064600F024
:100B700045F8014600901E4800270068FFF7E6FA96
:100B8000451C0020306070611A490098884205D8E1
:100B90007D20C000844205D2044606E0642C01D2C8
:100BA000642402E08C4200D90C460098884208D8A0
:100BB00001461148FFF7CAFA01467D20C000604394
:100BC00005E0FFF7C3FA6043070E02D0791CFFF778
:100BD000BDFA70600120800707433760002D02D006
:100BE00000BF6D1EFCD130688001FCD4F8BD000050
:100BF0000000002040420F0000CA9A3B10B588B0A8
:100C00000446202215496846FFF7B6FA144B144AE9
:100C100014482033944202D14069000A0BE09C4200
:100C200002D14069000B06E00F4940698C4201D1B6
:100C3000000C00E0000D4107490F022904D0880094
:100C40006946085808B010BD944201D09C4202D1B8
:100C5000FFF746FBF6E7FFF753FBF3E7A01A0000A8
:100C6000000005400002004000100540F7B517469F
:100C70000646FFF7C3FF054600244008B84201D8E6
:100C8000022008E039462846FFF760FA040E02D039
:100C9000611CFFF75BFA0199214331607060641CAD
:100CA000604301462846FFF751FAFEBD70B50B4878
:100CB0008168C907C90F10D00124846000F0BCFE10
:100CC000074D68687D21C900FFF740FA002903D16C
:100CD0000448816B61408163686870BD20000540F5
:100CE000100000204048004008B500206946087008
:100CF0006846FFF7E3FD012807D168460078010642
:100D000003D4400601D5012008BD002008BD000025
:100D10000024FFF70FFC0120FFF798FD154DFFF7AA
:100D200027FC641CA4B2AC42F9D3FFF721FEFFF705
:100D30002BFD0220FFF76CFD7D250024AD01FFF7A0
:100D400017FC641CA4B2AC42F9D3FFF7EBFDFFF72C
:100D50009BFD0024FFF70CFC641CA4B2AC42F9D349
:100D6000FFF706FEFFF724FD0220FFF751FD00F01C
:100D700003F8FEE7B036000008B5002069460870A9
:100D800001E0FFF7F5FB6846FFF798FD0128F8D171
:100D9000684600780006F4D408BD000010B50B4C7E
:100DA000E06911210902084202D104E000F044F98F
:100DB000A1694904FAD5A16920467122114203D0E4
:100DC0000921890200F07EF810BD000000000740F4
:100DD00010B51848FFF72AFE174CE12149022046BA
:100DE00000F090F81121204600F088F80120134906
:100DF00000030860FFF756FA014611A000F0E2F97F
:100E0000FFF758FA014615A000F0DCF9FFF75CFA8D
:100E1000014618A000F0D6F9FFF762FA01461BA0C0
:100E200000F0D0F9FFF76CFA01461FA000F0CAF9F4
:100E300010BD0000100000040000074000E100E0C9
:100E40000D0A434C4B5F47657443505546726571BC
:100E5000203A202538640D0A00000000434C4B5F07
:100E600047657448585446726571203A20253864A5
:100E70000D0A0000434C4B5F4765744C5854467252
:100E80006571203A202538640D0A0000434C4B5F01
:100E900047657450434C4B3046726571203A2025AB
:100EA00038640D0A00000000434C4B5F47657450E6
:100EB000434C4B3146726571203A202538640D0A47
:100EC00000000000CA0102D501221204C2614A05D5
:100ED00003D570228261082282610A0503D5426926
:100EE00001231A4342618A0401D5034A82614904FD
:100EF00001D51F21416470470100000142680A4387
:100F000042607047F0B587B00F46044600252E4674
:100F100018223E496846FFF72FF93D493D483E4AB1
:100F20008C4204D14369006A5B015D0F1FE03B4BBB
:100F30009C4204D14369006A5B005D0F22E0944249
:100F400004D1C369006B5B015D0F11E0344B9C421F
:100F500006D1C369006B5B005D0F0006060F13E04E
:100F6000304B9C4207D1C369006B5B035D0F000AE5
:100F70000607360F08E02C4B9C4205D1C369006B75
:100F80005B025D0F0004060F002020630320E06079
:100F9000A068264B1840A060012D02D0042D04D07B
:100FA00013E0FFF7BDF901900FE08C4207D09442A7
:100FB00005D01C48844202D01D48844202D1FFF76C
:100FC0008FF901E0FFF79CF90490002F1BD0A900D6
:100FD00068464058711CFFF7B9F805467908401873
:100FE0003946FFF7B3F81349801E884207D9F90044
:100FF00068183946FFF7AAF80009801E02E00321AD
:1010000009070843606207B0F0BD0000C01A000085
:101010000000074000020040002007400010074089
:101020000030074000400740005007400FFFF0FF2E
:1010300000600740FFFF000038B5002069460870D7
:1010400051480068C4B2782C38D0582C36D07F2C48
:1010500003D94EA000F0B6F838BD2246504951A041
:1010600000F0B0F852488025542C5ED01ADC372CA2
:101070004CD008DC313C230000F0B4F80634373C97
:101080003F424504E8E7512C43D006DC412C55D0C3
:10109000442C66D0452CDFD115E0522C41D0532C86
:1010A000DAD146E0712C34D011DC612C46D006DC5C
:1010B000572C32D0582C65D05A2CCDD162E0642CFC
:1010C0004FD0652CC8D101680122920234E0723CF5
:1010D000230000F087F809262E2A06062257065715
:1010E0000600B9E70168022226E00168042223E035
:1010F000016038BD016808221EE0016810221BE073
:101100000168202218E00168402215E001682943A7
:10111000EEE70168FF2201320EE00168012252026F
:101120000AE001680122D20206E0016801221203EE
:1011300002E00168012252031143D9E76846FFF734
:101140004BFB6A4611781BA000F03CF86A46107809
:10115000411C1170802800D315701078FFF7CAFB6E
:1011600038BD6846FFF738FB6A46117811A000F0D9
:1011700029F86A461078411E11700128EDD8012027
:101180001070EAE7FFF7F2FA00000740696E766137
:101190006C696420636F6D6D616E640D0A00000000
:1011A000171B00002573203A2025630D0A0000005C
:1011B00010000020766F6C756D65203078253258F0
:1011C0000D0A00000FB410B503A9044B044A02989D
:1011D00000F024F810BC08BC04B0184791160000B9
:1011E0000C00002030B47446641E2578641CAB42A9
:1011F00000D21D46635D5B00E31830BC184702E077
:1012000008C8121F08C1002AFAD170477047002091
:1012100001E001C1121F002AFBD17047FFB591B058
:101220000F460546002606E025280AD0149A139991
:1012300090476D1C761C28780028F5D1304615B0F3
:10124000F0BD002400940121F34A029400E004431D
:101250006D1C2B780846203B98401042F7D1287827
:101260002A280ED0022128780246303A092A15D8B9
:10127000009A0A235A43303A80180C436D1C0090A0
:10128000F1E701CF0090002805DA01204003044374
:10129000009840420090022004436D1C28782E28BC
:1012A00015D10420044368786D1C2A280AD101CF87
:1012B0006D1C02900BE002990A225143303940180C
:1012C0006D1C02902878014630390929F3D9287815
:1012D0006C2810D006DC4C281AD068280ED06A285A
:1012E00017D104E0742813D07A2812D110E001201D
:1012F000400504430CE00121090501E00321090533
:101300000C436978814203D10120000524186D1C2B
:101310006D1C287803906E281ED00CDC632831D019
:1013200004DC00288AD0582811D1B2E064287BD090
:1013300069280CD178E073282DD004DC6F2870D098
:10134000702804D1A7E075286CD078286BD0149A47
:1013500013999047761C62E06002400F022807D084
:1013600003280AD0042838680AD006603F1D56E0DA
:101370003868F11706604160F8E738680680F5E7DD
:101380000670F3E73878694608740020487404A8AA
:101390000390012003E0386803900020C0433F1D04
:1013A00061070FD5002101E00199491C029A0191C2
:1013B000914213DA8142F7DB019A0399895C002993
:1013C000F2D10BE0002101E00199491C0191814219
:1013D000FADB019A0399895C0029F5D101990098FB
:1013E000139A401A00902146149B00F03BF9019992
:1013F0008019461807E0039803990078491C039167
:10140000149A139990470198401E0190401CF2D104
:101410002146149B139A009800F014F986196D1C4C
:1014200009E741E033E034E00A200021049005910F
:101430006002410F022905D001CFC217944603294B
:1014400005D007E0FF1DFF08FF0003CF06E000B254
:10145000C2179446042902D140B2C1178C4600221B
:101460006146944506DA0A460021404291418C4685
:101470002D2102E0210504D52B216A461176012198
:1014800003E0E10701D02021F7E7019154E00A20B1
:101490000BE0102009E010200490002104200443F8
:1014A00008200591029003E0082000210591049096
:1014B0006002410F022905D001CF00229446032982
:1014C00006D006E0FF1DFF08FF0003CF8C4603E0B7
:1014D00080B2042900D1C0B20021019121072BD58F
:1014E0000399702906D0049A1021059B4A401A439B
:1014F00005D00EE040216A461176012108E06146E0
:10150000014306D030216A461176039951760221B3
:101510000191049A0821059B4A401A430CD1614667
:10152000014301D1610707D530216A4611760121B7
:1015300001910299491E02910399582904D037A1BB
:1015400003910FA90F910DE039A1F9E76146059BC1
:10155000049AFEF723FE039B8C469B5C0F9A521E57
:101560000F92137061460143F0D10F9807A9081A32
:1015700020300390600704D50120000484430298C2
:1015800001E0012002900399884201DD401A00E049
:10159000002041180290019809180098401A009004
:1015A000E00306D42146149B139A009800F05AF8E1
:1015B00086190020049008E006A9085C149A139983
:1015C00090470498401C761C049001998842F3DBF4
:1015D000E0030CD52146149B139A009800F042F8C2
:1015E000861904E0149A302013999047761C0299CA
:1015F000481E02900029F5DC08E00F980F9900784A
:10160000491C0F91149A13999047761C0399481E10
:1016100003900029F1DCFBE6092801003031323368
:10162000343536373839616263646566000000001E
:101630003031323334353637383941424344454608
:1016400000000000F8B5044600251E461746880431
:1016500004D405E039462020B0476D1C641EF9D53E
:101660002846F8BDFFB50446002581B01E46C803D4
:1016700001D5302700E02027880404D505E038464E
:101680000399B0476D1C641EF9D5284605B0F0BD1E
:1016900010B50446FFF7D8F9204610BDFFF77CF9D6
:1016A000FFF796FBFEF718FFFFF744FAFEF742FF3D
:1016B000FFF75EF9FFF768F84020FFF71BF900F02D
:1016C00001F8FCE710B56C4C2068C005206806D511
:1016D000FF21013188432060FFF71AFB10BD800510
:1016E000206811D50121490288432060FFF740F9A5
:1016F000FFF74AF84020FFF7FDF80220FFF788F8CF
:10170000FFF73AFB5DA010E04005206814D50121E9
:10171000890288432060FFF72BF9FFF735F8062090
:10172000FFF776F8FFF728FB5BA0FFF74BFDFFF70D
:101730003FF8FFF7A9F810BD0005206802D5012188
:10174000C90204E0C004206804D5012109038843CC
:10175000206010BD8007206810D5022188432060DA
:10176000FFF706F9FFF710F84020FFF7C3F8012054
:10177000FFF74EF8FFF700FB4EA00FE04007206890
:101780000FD5042188432060FFF7F2F8FEF7FCFF35
:101790000220FFF73DF8FFF7EFFA4DA0FFF712FD2B
:1017A00010BD000720680DD5082188432060FFF791
:1017B000DFF8FEF7E9FF0320FFF72AF8FFF7DCFA6E
:1017C0004AA0EBE7C00620680DD5102188432060B1
:1017D000FFF7CEF8FEF7D8FF0420FFF719F8FFF760
:1017E000CBFA49A0DAE7800620680DD5202188438E
:1017F0002060FFF7BDF8FEF7C7FF0520FFF708F8E8
:10180000FFF7BAFA47A0C9E7400620680DD5402186
:1018100088432060FFF7ACF8FEF7B6FF0620FEF71E
:10182000F7FFFFF7A9FA46A0B8E70006B8D5206889
:10183000802188432060FFF79BF8FEF7A5FF072073
:10184000FEF7E6FFFEF794FE206880040DD543A066
:10185000FFF7B8FC20680121490388432060FFF7A7
:1018600061F840A0FFF7AEFC03E0FFF73DFA002867
:10187000E8D040A092E700001000002054776F5796
:101880006972655F57616974506C6179454E442097
:10189000285729200D0A000054776F576972655F39
:1018A00057616974506C6179454E44202845292060
:1018B0000D0A000054776F576972655F576169744C
:1018C000506C6179454E4420283129200D0A0000D2
:1018D00054776F576972655F57616974506C6179AD
:1018E000454E44202832290D0A00000054776F57D6
:1018F0006972655F57616974506C6179454E442027
:101900002833290D0A00000054776F576972655F0C
:1019100057616974506C6179454E44202834290D13
:101920000A00000054776F576972655F57616974E8
:10193000506C6179454E44202835290D0A0000007D
:1019400054776F576972655F57616974506C61793C
:10195000454E44202836290D0A000000747269673C
:101960006765722073746F7020706C6179696E673F
:101970000D0A000054776F576972655F576169748B
:10198000506C6179454E44202837290D0A0000002B
:1019900010B50446016810A0FFF714FC11A061689F
:1019A000FFF710FC12A0A168FFF70CFC13A0E16880
:1019B000FFF708FC14A02169FFF704FC15A061697A
:1019C000FFF700FC16A0A169FFF7FCFB17A0E16977
:1019D000FFF7F8FB10BD0000723020203D2030786A
:1019E00025780A00723120203D20307825780A00C1
:1019F000723220203D20307825780A007233202072
:101A00003D20307825780A00723132203D20307830
:101A100025780A006C7220203D20307825780A0055
:101A2000706320203D20307825780A007073722082
:101A30003D20307825780A0002484168491C416001
:101A400070470000100000200048E80100800000FE
:101A500000D8B80500960000006CDC020000000011
:101A600000000000006CDC02000000000400000028
:101A7000080000000C000000000000000000000052
:101A80000000000010000000000000000400000042
:101A90000800000000000000040000000800000032
:101AA0000048E80100800000000000000000000085
:101AB000000000000096000000000000006CDC0246
:101AC0000048E8010000000000800000006CDC021B
:101AD00000000000009600000048E801000000003F
:101AE00000800000006CDC02000000000096000096
:101AF0000048E8010000000000800000006CDC02EB
:101B00000000000000960000636F6D706172655FF9
:101B10006275666665720055415254785F50726F07
:101B20006365737300000000481B00000000002084
:101B300028000000FE110000701B0000280000209B
:101B4000100200000E12000000D8B805600000006E
:101B500000D8B805000000000000000000000000F0
:101B60000000000000000000000000000000000075
:04000005000000F106
:00000001FF
